{
  "_format": "hh-sol-artifact-1",
  "contractName": "ProjectStages",
  "sourceName": "contracts/TokenNoFungible.sol",
  "abi": [
    {
      "inputs": [],
      "stateMutability": "nonpayable",
      "type": "constructor"
    },
    {
      "inputs": [
        {
          "internalType": "address",
          "name": "sender",
          "type": "address"
        },
        {
          "internalType": "uint256",
          "name": "tokenId",
          "type": "uint256"
        },
        {
          "internalType": "address",
          "name": "owner",
          "type": "address"
        }
      ],
      "name": "ERC721IncorrectOwner",
      "type": "error"
    },
    {
      "inputs": [
        {
          "internalType": "address",
          "name": "operator",
          "type": "address"
        },
        {
          "internalType": "uint256",
          "name": "tokenId",
          "type": "uint256"
        }
      ],
      "name": "ERC721InsufficientApproval",
      "type": "error"
    },
    {
      "inputs": [
        {
          "internalType": "address",
          "name": "approver",
          "type": "address"
        }
      ],
      "name": "ERC721InvalidApprover",
      "type": "error"
    },
    {
      "inputs": [
        {
          "internalType": "address",
          "name": "operator",
          "type": "address"
        }
      ],
      "name": "ERC721InvalidOperator",
      "type": "error"
    },
    {
      "inputs": [
        {
          "internalType": "address",
          "name": "owner",
          "type": "address"
        }
      ],
      "name": "ERC721InvalidOwner",
      "type": "error"
    },
    {
      "inputs": [
        {
          "internalType": "address",
          "name": "receiver",
          "type": "address"
        }
      ],
      "name": "ERC721InvalidReceiver",
      "type": "error"
    },
    {
      "inputs": [
        {
          "internalType": "address",
          "name": "sender",
          "type": "address"
        }
      ],
      "name": "ERC721InvalidSender",
      "type": "error"
    },
    {
      "inputs": [
        {
          "internalType": "uint256",
          "name": "tokenId",
          "type": "uint256"
        }
      ],
      "name": "ERC721NonexistentToken",
      "type": "error"
    },
    {
      "anonymous": false,
      "inputs": [
        {
          "indexed": true,
          "internalType": "address",
          "name": "owner",
          "type": "address"
        },
        {
          "indexed": true,
          "internalType": "address",
          "name": "approved",
          "type": "address"
        },
        {
          "indexed": true,
          "internalType": "uint256",
          "name": "tokenId",
          "type": "uint256"
        }
      ],
      "name": "Approval",
      "type": "event"
    },
    {
      "anonymous": false,
      "inputs": [
        {
          "indexed": true,
          "internalType": "address",
          "name": "owner",
          "type": "address"
        },
        {
          "indexed": true,
          "internalType": "address",
          "name": "operator",
          "type": "address"
        },
        {
          "indexed": false,
          "internalType": "bool",
          "name": "approved",
          "type": "bool"
        }
      ],
      "name": "ApprovalForAll",
      "type": "event"
    },
    {
      "anonymous": false,
      "inputs": [
        {
          "indexed": false,
          "internalType": "uint256",
          "name": "_fromTokenId",
          "type": "uint256"
        },
        {
          "indexed": false,
          "internalType": "uint256",
          "name": "_toTokenId",
          "type": "uint256"
        }
      ],
      "name": "BatchMetadataUpdate",
      "type": "event"
    },
    {
      "anonymous": false,
      "inputs": [
        {
          "indexed": false,
          "internalType": "uint256",
          "name": "_tokenId",
          "type": "uint256"
        }
      ],
      "name": "MetadataUpdate",
      "type": "event"
    },
    {
      "anonymous": false,
      "inputs": [
        {
          "indexed": true,
          "internalType": "address",
          "name": "from",
          "type": "address"
        },
        {
          "indexed": true,
          "internalType": "address",
          "name": "to",
          "type": "address"
        },
        {
          "indexed": true,
          "internalType": "uint256",
          "name": "tokenId",
          "type": "uint256"
        }
      ],
      "name": "Transfer",
      "type": "event"
    },
    {
      "inputs": [
        {
          "internalType": "address",
          "name": "to",
          "type": "address"
        },
        {
          "internalType": "uint256",
          "name": "tokenId",
          "type": "uint256"
        }
      ],
      "name": "approve",
      "outputs": [],
      "stateMutability": "nonpayable",
      "type": "function"
    },
    {
      "inputs": [
        {
          "internalType": "address",
          "name": "owner",
          "type": "address"
        }
      ],
      "name": "balanceOf",
      "outputs": [
        {
          "internalType": "uint256",
          "name": "",
          "type": "uint256"
        }
      ],
      "stateMutability": "view",
      "type": "function"
    },
    {
      "inputs": [
        {
          "internalType": "uint256",
          "name": "stageId",
          "type": "uint256"
        }
      ],
      "name": "completeStage",
      "outputs": [],
      "stateMutability": "nonpayable",
      "type": "function"
    },
    {
      "inputs": [
        {
          "internalType": "string",
          "name": "name",
          "type": "string"
        },
        {
          "internalType": "string",
          "name": "description",
          "type": "string"
        },
        {
          "internalType": "string",
          "name": "uri",
          "type": "string"
        }
      ],
      "name": "createStage",
      "outputs": [
        {
          "internalType": "uint256",
          "name": "",
          "type": "uint256"
        }
      ],
      "stateMutability": "nonpayable",
      "type": "function"
    },
    {
      "inputs": [
        {
          "internalType": "uint256",
          "name": "tokenId",
          "type": "uint256"
        }
      ],
      "name": "getApproved",
      "outputs": [
        {
          "internalType": "address",
          "name": "",
          "type": "address"
        }
      ],
      "stateMutability": "view",
      "type": "function"
    },
    {
      "inputs": [
        {
          "internalType": "address",
          "name": "owner",
          "type": "address"
        },
        {
          "internalType": "address",
          "name": "operator",
          "type": "address"
        }
      ],
      "name": "isApprovedForAll",
      "outputs": [
        {
          "internalType": "bool",
          "name": "",
          "type": "bool"
        }
      ],
      "stateMutability": "view",
      "type": "function"
    },
    {
      "inputs": [],
      "name": "name",
      "outputs": [
        {
          "internalType": "string",
          "name": "",
          "type": "string"
        }
      ],
      "stateMutability": "view",
      "type": "function"
    },
    {
      "inputs": [
        {
          "internalType": "uint256",
          "name": "tokenId",
          "type": "uint256"
        }
      ],
      "name": "ownerOf",
      "outputs": [
        {
          "internalType": "address",
          "name": "",
          "type": "address"
        }
      ],
      "stateMutability": "view",
      "type": "function"
    },
    {
      "inputs": [
        {
          "internalType": "address",
          "name": "from",
          "type": "address"
        },
        {
          "internalType": "address",
          "name": "to",
          "type": "address"
        },
        {
          "internalType": "uint256",
          "name": "tokenId",
          "type": "uint256"
        }
      ],
      "name": "safeTransferFrom",
      "outputs": [],
      "stateMutability": "nonpayable",
      "type": "function"
    },
    {
      "inputs": [
        {
          "internalType": "address",
          "name": "from",
          "type": "address"
        },
        {
          "internalType": "address",
          "name": "to",
          "type": "address"
        },
        {
          "internalType": "uint256",
          "name": "tokenId",
          "type": "uint256"
        },
        {
          "internalType": "bytes",
          "name": "data",
          "type": "bytes"
        }
      ],
      "name": "safeTransferFrom",
      "outputs": [],
      "stateMutability": "nonpayable",
      "type": "function"
    },
    {
      "inputs": [
        {
          "internalType": "address",
          "name": "operator",
          "type": "address"
        },
        {
          "internalType": "bool",
          "name": "approved",
          "type": "bool"
        }
      ],
      "name": "setApprovalForAll",
      "outputs": [],
      "stateMutability": "nonpayable",
      "type": "function"
    },
    {
      "inputs": [
        {
          "internalType": "uint256",
          "name": "",
          "type": "uint256"
        }
      ],
      "name": "stages",
      "outputs": [
        {
          "internalType": "string",
          "name": "name",
          "type": "string"
        },
        {
          "internalType": "string",
          "name": "description",
          "type": "string"
        },
        {
          "internalType": "bool",
          "name": "completed",
          "type": "bool"
        },
        {
          "internalType": "uint256",
          "name": "timestamp",
          "type": "uint256"
        }
      ],
      "stateMutability": "view",
      "type": "function"
    },
    {
      "inputs": [
        {
          "internalType": "bytes4",
          "name": "interfaceId",
          "type": "bytes4"
        }
      ],
      "name": "supportsInterface",
      "outputs": [
        {
          "internalType": "bool",
          "name": "",
          "type": "bool"
        }
      ],
      "stateMutability": "view",
      "type": "function"
    },
    {
      "inputs": [],
      "name": "symbol",
      "outputs": [
        {
          "internalType": "string",
          "name": "",
          "type": "string"
        }
      ],
      "stateMutability": "view",
      "type": "function"
    },
    {
      "inputs": [
        {
          "internalType": "uint256",
          "name": "tokenId",
          "type": "uint256"
        }
      ],
      "name": "tokenURI",
      "outputs": [
        {
          "internalType": "string",
          "name": "",
          "type": "string"
        }
      ],
      "stateMutability": "view",
      "type": "function"
    },
    {
      "inputs": [
        {
          "internalType": "address",
          "name": "from",
          "type": "address"
        },
        {
          "internalType": "address",
          "name": "to",
          "type": "address"
        },
        {
          "internalType": "uint256",
          "name": "tokenId",
          "type": "uint256"
        }
      ],
      "name": "transferFrom",
      "outputs": [],
      "stateMutability": "nonpayable",
      "type": "function"
    },
    {
      "inputs": [
        {
          "internalType": "address",
          "name": "newAdmin",
          "type": "address"
        }
      ],
      "name": "updateAdmin",
      "outputs": [],
      "stateMutability": "nonpayable",
      "type": "function"
    }
  ],
  "bytecode": "0x60806040523480156200001157600080fd5b506040518060400160405280600d81526020017f50726f6a656374537461676573000000000000000000000000000000000000008152506040518060400160405280600481526020017f505354470000000000000000000000000000000000000000000000000000000081525081600090816200008f919062000365565b508060019081620000a1919062000365565b50505033600860006101000a81548173ffffffffffffffffffffffffffffffffffffffff021916908373ffffffffffffffffffffffffffffffffffffffff1602179055506200044c565b600081519050919050565b7f4e487b7100000000000000000000000000000000000000000000000000000000600052604160045260246000fd5b7f4e487b7100000000000000000000000000000000000000000000000000000000600052602260045260246000fd5b600060028204905060018216806200016d57607f821691505b60208210810362000183576200018262000125565b5b50919050565b60008190508160005260206000209050919050565b60006020601f8301049050919050565b600082821b905092915050565b600060088302620001ed7fffffffffffffffffffffffffffffffffffffffffffffffffffffffffffffffff82620001ae565b620001f98683620001ae565b95508019841693508086168417925050509392505050565b6000819050919050565b6000819050919050565b600062000246620002406200023a8462000211565b6200021b565b62000211565b9050919050565b6000819050919050565b620002628362000225565b6200027a62000271826200024d565b848454620001bb565b825550505050565b600090565b6200029162000282565b6200029e81848462000257565b505050565b5b81811015620002c657620002ba60008262000287565b600181019050620002a4565b5050565b601f8211156200031557620002df8162000189565b620002ea846200019e565b81016020851015620002fa578190505b6200031262000309856200019e565b830182620002a3565b50505b505050565b600082821c905092915050565b60006200033a600019846008026200031a565b1980831691505092915050565b600062000355838362000327565b9150826002028217905092915050565b6200037082620000eb565b67ffffffffffffffff8111156200038c576200038b620000f6565b5b62000398825462000154565b620003a5828285620002ca565b600060209050601f831160018114620003dd5760008415620003c8578287015190505b620003d4858262000347565b86555062000444565b601f198416620003ed8662000189565b60005b828110156200041757848901518255600182019150602085019450602081019050620003f0565b8683101562000437578489015162000433601f89168262000327565b8355505b6001600288020188555050505b505050505050565b612cbe806200045c6000396000f3fe608060405234801561001057600080fd5b506004361061010b5760003560e01c8063845ddcb2116100a2578063b88d4fde11610071578063b88d4fde146102df578063c87b56dd146102fb578063ca2719c21461032b578063e2f273bd14610347578063e985e9c5146103635761010b565b8063845ddcb21461024257806395d89b4114610275578063a22cb46514610293578063a3faacf1146102af5761010b565b806323b872dd116100de57806323b872dd146101aa57806342842e0e146101c65780636352211e146101e257806370a08231146102125761010b565b806301ffc9a71461011057806306fdde0314610140578063081812fc1461015e578063095ea7b31461018e575b600080fd5b61012a60048036038101906101259190611db2565b610393565b6040516101379190611dfa565b60405180910390f35b6101486103f4565b6040516101559190611ea5565b60405180910390f35b61017860048036038101906101739190611efd565b610486565b6040516101859190611f6b565b60405180910390f35b6101a860048036038101906101a39190611fb2565b6104a2565b005b6101c460048036038101906101bf9190611ff2565b6104b8565b005b6101e060048036038101906101db9190611ff2565b6105ba565b005b6101fc60048036038101906101f79190611efd565b6105da565b6040516102099190611f6b565b60405180910390f35b61022c60048036038101906102279190612045565b6105ec565b6040516102399190612081565b60405180910390f35b61025c60048036038101906102579190611efd565b6106a6565b60405161026c949392919061209c565b60405180910390f35b61027d6107f3565b60405161028a9190611ea5565b60405180910390f35b6102ad60048036038101906102a8919061211b565b610885565b005b6102c960048036038101906102c49190612290565b61089b565b6040516102d69190612081565b60405180910390f35b6102f960048036038101906102f491906123d8565b6109fd565b005b61031560048036038101906103109190611efd565b610a22565b6040516103229190611ea5565b60405180910390f35b61034560048036038101906103409190611efd565b610b35565b005b610361600480360381019061035c9190612045565b610cba565b005b61037d6004803603810190610378919061245b565b610d8e565b60405161038a9190611dfa565b60405180910390f35b6000634906490660e01b7bffffffffffffffffffffffffffffffffffffffffffffffffffffffff1916827bffffffffffffffffffffffffffffffffffffffffffffffffffffffff191614806103ed57506103ec82610e22565b5b9050919050565b606060008054610403906124ca565b80601f016020809104026020016040519081016040528092919081815260200182805461042f906124ca565b801561047c5780601f106104515761010080835404028352916020019161047c565b820191906000526020600020905b81548152906001019060200180831161045f57829003601f168201915b5050505050905090565b600061049182610f04565b5061049b82610f8c565b9050919050565b6104b482826104af610fc9565b610fd1565b5050565b600073ffffffffffffffffffffffffffffffffffffffff168273ffffffffffffffffffffffffffffffffffffffff160361052a5760006040517f64a0ae920000000000000000000000000000000000000000000000000000000081526004016105219190611f6b565b60405180910390fd5b600061053e8383610539610fc9565b610fe3565b90508373ffffffffffffffffffffffffffffffffffffffff168173ffffffffffffffffffffffffffffffffffffffff16146105b4578382826040517f64283d7b0000000000000000000000000000000000000000000000000000000081526004016105ab939291906124fb565b60405180910390fd5b50505050565b6105d5838383604051806020016040528060008152506109fd565b505050565b60006105e582610f04565b9050919050565b60008073ffffffffffffffffffffffffffffffffffffffff168273ffffffffffffffffffffffffffffffffffffffff160361065f5760006040517f89c62b640000000000000000000000000000000000000000000000000000000081526004016106569190611f6b565b60405180910390fd5b600360008373ffffffffffffffffffffffffffffffffffffffff1673ffffffffffffffffffffffffffffffffffffffff168152602001908152602001600020549050919050565b60096020528060005260406000206000915090508060000180546106c9906124ca565b80601f01602080910402602001604051908101604052809291908181526020018280546106f5906124ca565b80156107425780601f1061071757610100808354040283529160200191610742565b820191906000526020600020905b81548152906001019060200180831161072557829003601f168201915b505050505090806001018054610757906124ca565b80601f0160208091040260200160405190810160405280929190818152602001828054610783906124ca565b80156107d05780601f106107a5576101008083540402835291602001916107d0565b820191906000526020600020905b8154815290600101906020018083116107b357829003601f168201915b5050505050908060020160009054906101000a900460ff16908060030154905084565b606060018054610802906124ca565b80601f016020809104026020016040519081016040528092919081815260200182805461082e906124ca565b801561087b5780601f106108505761010080835404028352916020019161087b565b820191906000526020600020905b81548152906001019060200180831161085e57829003601f168201915b5050505050905090565b610897610890610fc9565b83836111fd565b5050565b6000600860009054906101000a900473ffffffffffffffffffffffffffffffffffffffff1673ffffffffffffffffffffffffffffffffffffffff163373ffffffffffffffffffffffffffffffffffffffff161461092d576040517f08c379a0000000000000000000000000000000000000000000000000000000008152600401610924906125a4565b60405180910390fd5b6000600754905061093e338261136c565b610948818461138a565b6040518060800160405280868152602001858152602001600015158152602001428152506009600083815260200190815260200160002060008201518160000190816109949190612770565b5060208201518160010190816109aa9190612770565b5060408201518160020160006101000a81548160ff021916908315150217905550606082015181600301559050506001600760008282546109eb9190612871565b92505081905550809150509392505050565b610a088484846104b8565b610a1c610a13610fc9565b858585856113e6565b50505050565b6060610a2d82610f04565b506000600660008481526020019081526020016000208054610a4e906124ca565b80601f0160208091040260200160405190810160405280929190818152602001828054610a7a906124ca565b8015610ac75780601f10610a9c57610100808354040283529160200191610ac7565b820191906000526020600020905b815481529060010190602001808311610aaa57829003601f168201915b505050505090506000610ad8611597565b90506000815103610aed578192505050610b30565b600082511115610b22578082604051602001610b0a9291906128e1565b60405160208183030381529060405292505050610b30565b610b2b846115ae565b925050505b919050565b600860009054906101000a900473ffffffffffffffffffffffffffffffffffffffff1673ffffffffffffffffffffffffffffffffffffffff163373ffffffffffffffffffffffffffffffffffffffff1614610bc5576040517f08c379a0000000000000000000000000000000000000000000000000000000008152600401610bbc90612977565b60405180910390fd5b6007548110610c09576040517f08c379a0000000000000000000000000000000000000000000000000000000008152600401610c0090612a09565b60405180910390fd5b6009600082815260200190815260200160002060020160009054906101000a900460ff1615610c6d576040517f08c379a0000000000000000000000000000000000000000000000000000000008152600401610c6490612a9b565b60405180910390fd5b60016009600083815260200190815260200160002060020160006101000a81548160ff02191690831515021790555042600960008381526020019081526020016000206003018190555050565b600860009054906101000a900473ffffffffffffffffffffffffffffffffffffffff1673ffffffffffffffffffffffffffffffffffffffff163373ffffffffffffffffffffffffffffffffffffffff1614610d4a576040517f08c379a0000000000000000000000000000000000000000000000000000000008152600401610d4190612b2d565b60405180910390fd5b80600860006101000a81548173ffffffffffffffffffffffffffffffffffffffff021916908373ffffffffffffffffffffffffffffffffffffffff16021790555050565b6000600560008473ffffffffffffffffffffffffffffffffffffffff1673ffffffffffffffffffffffffffffffffffffffff16815260200190815260200160002060008373ffffffffffffffffffffffffffffffffffffffff1673ffffffffffffffffffffffffffffffffffffffff16815260200190815260200160002060009054906101000a900460ff16905092915050565b60007f80ac58cd000000000000000000000000000000000000000000000000000000007bffffffffffffffffffffffffffffffffffffffffffffffffffffffff1916827bffffffffffffffffffffffffffffffffffffffffffffffffffffffff19161480610eed57507f5b5e139f000000000000000000000000000000000000000000000000000000007bffffffffffffffffffffffffffffffffffffffffffffffffffffffff1916827bffffffffffffffffffffffffffffffffffffffffffffffffffffffff1916145b80610efd5750610efc82611617565b5b9050919050565b600080610f1083611681565b9050600073ffffffffffffffffffffffffffffffffffffffff168173ffffffffffffffffffffffffffffffffffffffff1603610f8357826040517f7e273289000000000000000000000000000000000000000000000000000000008152600401610f7a9190612081565b60405180910390fd5b80915050919050565b60006004600083815260200190815260200160002060009054906101000a900473ffffffffffffffffffffffffffffffffffffffff169050919050565b600033905090565b610fde83838360016116be565b505050565b600080610fef84611681565b9050600073ffffffffffffffffffffffffffffffffffffffff168373ffffffffffffffffffffffffffffffffffffffff161461103157611030818486611883565b5b600073ffffffffffffffffffffffffffffffffffffffff168173ffffffffffffffffffffffffffffffffffffffff16146110c2576110736000856000806116be565b6001600360008373ffffffffffffffffffffffffffffffffffffffff1673ffffffffffffffffffffffffffffffffffffffff168152602001908152602001600020600082825403925050819055505b600073ffffffffffffffffffffffffffffffffffffffff168573ffffffffffffffffffffffffffffffffffffffff1614611145576001600360008773ffffffffffffffffffffffffffffffffffffffff1673ffffffffffffffffffffffffffffffffffffffff168152602001908152602001600020600082825401925050819055505b846002600086815260200190815260200160002060006101000a81548173ffffffffffffffffffffffffffffffffffffffff021916908373ffffffffffffffffffffffffffffffffffffffff160217905550838573ffffffffffffffffffffffffffffffffffffffff168273ffffffffffffffffffffffffffffffffffffffff167fddf252ad1be2c89b69c2b068fc378daa952ba7f163c4a11628f55a4df523b3ef60405160405180910390a4809150509392505050565b600073ffffffffffffffffffffffffffffffffffffffff168273ffffffffffffffffffffffffffffffffffffffff160361126e57816040517f5b08ba180000000000000000000000000000000000000000000000000000000081526004016112659190611f6b565b60405180910390fd5b80600560008573ffffffffffffffffffffffffffffffffffffffff1673ffffffffffffffffffffffffffffffffffffffff16815260200190815260200160002060008473ffffffffffffffffffffffffffffffffffffffff1673ffffffffffffffffffffffffffffffffffffffff16815260200190815260200160002060006101000a81548160ff0219169083151502179055508173ffffffffffffffffffffffffffffffffffffffff168373ffffffffffffffffffffffffffffffffffffffff167f17307eab39ab6107e8899845ad3d59bd9653f200f220920489ca2b5937696c318360405161135f9190611dfa565b60405180910390a3505050565b611386828260405180602001604052806000815250611947565b5050565b806006600084815260200190815260200160002090816113aa9190612770565b507ff8e1a15aba9398e019f0b49df1a4fde98ee17ae345cb5f6b5e2c27f5033e8ce7826040516113da9190612081565b60405180910390a15050565b60008373ffffffffffffffffffffffffffffffffffffffff163b1115611590578273ffffffffffffffffffffffffffffffffffffffff1663150b7a02868685856040518563ffffffff1660e01b81526004016114459493929190612ba2565b6020604051808303816000875af192505050801561148157506040513d601f19601f8201168201806040525081019061147e9190612c03565b60015b611505573d80600081146114b1576040519150601f19603f3d011682016040523d82523d6000602084013e6114b6565b606091505b5060008151036114fd57836040517f64a0ae920000000000000000000000000000000000000000000000000000000081526004016114f49190611f6b565b60405180910390fd5b805181602001fd5b63150b7a0260e01b7bffffffffffffffffffffffffffffffffffffffffffffffffffffffff1916817bffffffffffffffffffffffffffffffffffffffffffffffffffffffff19161461158e57836040517f64a0ae920000000000000000000000000000000000000000000000000000000081526004016115859190611f6b565b60405180910390fd5b505b5050505050565b606060405180602001604052806000815250905090565b60606115b982610f04565b5060006115c4611597565b905060008151116115e4576040518060200160405280600081525061160f565b806115ee8461196b565b6040516020016115ff9291906128e1565b6040516020818303038152906040525b915050919050565b60007f01ffc9a7000000000000000000000000000000000000000000000000000000007bffffffffffffffffffffffffffffffffffffffffffffffffffffffff1916827bffffffffffffffffffffffffffffffffffffffffffffffffffffffff1916149050919050565b60006002600083815260200190815260200160002060009054906101000a900473ffffffffffffffffffffffffffffffffffffffff169050919050565b80806116f75750600073ffffffffffffffffffffffffffffffffffffffff168273ffffffffffffffffffffffffffffffffffffffff1614155b1561182b57600061170784610f04565b9050600073ffffffffffffffffffffffffffffffffffffffff168373ffffffffffffffffffffffffffffffffffffffff161415801561177257508273ffffffffffffffffffffffffffffffffffffffff168173ffffffffffffffffffffffffffffffffffffffff1614155b801561178557506117838184610d8e565b155b156117c757826040517fa9fbf51f0000000000000000000000000000000000000000000000000000000081526004016117be9190611f6b565b60405180910390fd5b811561182957838573ffffffffffffffffffffffffffffffffffffffff168273ffffffffffffffffffffffffffffffffffffffff167f8c5be1e5ebec7d5bd14f71427d1e84f3dd0314c0f7b2291e5b200ac8c7c3b92560405160405180910390a45b505b836004600085815260200190815260200160002060006101000a81548173ffffffffffffffffffffffffffffffffffffffff021916908373ffffffffffffffffffffffffffffffffffffffff16021790555050505050565b61188e838383611a39565b61194257600073ffffffffffffffffffffffffffffffffffffffff168373ffffffffffffffffffffffffffffffffffffffff160361190357806040517f7e2732890000000000000000000000000000000000000000000000000000000081526004016118fa9190612081565b60405180910390fd5b81816040517f177e802f000000000000000000000000000000000000000000000000000000008152600401611939929190612c30565b60405180910390fd5b505050565b6119518383611afa565b61196661195c610fc9565b60008585856113e6565b505050565b60606000600161197a84611bf3565b01905060008167ffffffffffffffff81111561199957611998612165565b5b6040519080825280601f01601f1916602001820160405280156119cb5781602001600182028036833780820191505090505b509050600082602001820190505b600115611a2e578080600190039150507f3031323334353637383961626364656600000000000000000000000000000000600a86061a8153600a8581611a2257611a21612c59565b5b049450600085036119d9575b819350505050919050565b60008073ffffffffffffffffffffffffffffffffffffffff168373ffffffffffffffffffffffffffffffffffffffff1614158015611af157508273ffffffffffffffffffffffffffffffffffffffff168473ffffffffffffffffffffffffffffffffffffffff161480611ab25750611ab18484610d8e565b5b80611af057508273ffffffffffffffffffffffffffffffffffffffff16611ad883610f8c565b73ffffffffffffffffffffffffffffffffffffffff16145b5b90509392505050565b600073ffffffffffffffffffffffffffffffffffffffff168273ffffffffffffffffffffffffffffffffffffffff1603611b6c5760006040517f64a0ae92000000000000000000000000000000000000000000000000000000008152600401611b639190611f6b565b60405180910390fd5b6000611b7a83836000610fe3565b9050600073ffffffffffffffffffffffffffffffffffffffff168173ffffffffffffffffffffffffffffffffffffffff1614611bee5760006040517f73c6ac6e000000000000000000000000000000000000000000000000000000008152600401611be59190611f6b565b60405180910390fd5b505050565b600080600090507a184f03e93ff9f4daa797ed6e38ed64bf6a1f0100000000000000008310611c51577a184f03e93ff9f4daa797ed6e38ed64bf6a1f0100000000000000008381611c4757611c46612c59565b5b0492506040810190505b6d04ee2d6d415b85acef81000000008310611c8e576d04ee2d6d415b85acef81000000008381611c8457611c83612c59565b5b0492506020810190505b662386f26fc100008310611cbd57662386f26fc100008381611cb357611cb2612c59565b5b0492506010810190505b6305f5e1008310611ce6576305f5e1008381611cdc57611cdb612c59565b5b0492506008810190505b6127108310611d0b576127108381611d0157611d00612c59565b5b0492506004810190505b60648310611d2e5760648381611d2457611d23612c59565b5b0492506002810190505b600a8310611d3d576001810190505b80915050919050565b6000604051905090565b600080fd5b600080fd5b60007fffffffff0000000000000000000000000000000000000000000000000000000082169050919050565b611d8f81611d5a565b8114611d9a57600080fd5b50565b600081359050611dac81611d86565b92915050565b600060208284031215611dc857611dc7611d50565b5b6000611dd684828501611d9d565b91505092915050565b60008115159050919050565b611df481611ddf565b82525050565b6000602082019050611e0f6000830184611deb565b92915050565b600081519050919050565b600082825260208201905092915050565b60005b83811015611e4f578082015181840152602081019050611e34565b60008484015250505050565b6000601f19601f8301169050919050565b6000611e7782611e15565b611e818185611e20565b9350611e91818560208601611e31565b611e9a81611e5b565b840191505092915050565b60006020820190508181036000830152611ebf8184611e6c565b905092915050565b6000819050919050565b611eda81611ec7565b8114611ee557600080fd5b50565b600081359050611ef781611ed1565b92915050565b600060208284031215611f1357611f12611d50565b5b6000611f2184828501611ee8565b91505092915050565b600073ffffffffffffffffffffffffffffffffffffffff82169050919050565b6000611f5582611f2a565b9050919050565b611f6581611f4a565b82525050565b6000602082019050611f806000830184611f5c565b92915050565b611f8f81611f4a565b8114611f9a57600080fd5b50565b600081359050611fac81611f86565b92915050565b60008060408385031215611fc957611fc8611d50565b5b6000611fd785828601611f9d565b9250506020611fe885828601611ee8565b9150509250929050565b60008060006060848603121561200b5761200a611d50565b5b600061201986828701611f9d565b935050602061202a86828701611f9d565b925050604061203b86828701611ee8565b9150509250925092565b60006020828403121561205b5761205a611d50565b5b600061206984828501611f9d565b91505092915050565b61207b81611ec7565b82525050565b60006020820190506120966000830184612072565b92915050565b600060808201905081810360008301526120b68187611e6c565b905081810360208301526120ca8186611e6c565b90506120d96040830185611deb565b6120e66060830184612072565b95945050505050565b6120f881611ddf565b811461210357600080fd5b50565b600081359050612115816120ef565b92915050565b6000806040838503121561213257612131611d50565b5b600061214085828601611f9d565b925050602061215185828601612106565b9150509250929050565b600080fd5b600080fd5b7f4e487b7100000000000000000000000000000000000000000000000000000000600052604160045260246000fd5b61219d82611e5b565b810181811067ffffffffffffffff821117156121bc576121bb612165565b5b80604052505050565b60006121cf611d46565b90506121db8282612194565b919050565b600067ffffffffffffffff8211156121fb576121fa612165565b5b61220482611e5b565b9050602081019050919050565b82818337600083830152505050565b600061223361222e846121e0565b6121c5565b90508281526020810184848401111561224f5761224e612160565b5b61225a848285612211565b509392505050565b600082601f8301126122775761227661215b565b5b8135612287848260208601612220565b91505092915050565b6000806000606084860312156122a9576122a8611d50565b5b600084013567ffffffffffffffff8111156122c7576122c6611d55565b5b6122d386828701612262565b935050602084013567ffffffffffffffff8111156122f4576122f3611d55565b5b61230086828701612262565b925050604084013567ffffffffffffffff81111561232157612320611d55565b5b61232d86828701612262565b9150509250925092565b600067ffffffffffffffff82111561235257612351612165565b5b61235b82611e5b565b9050602081019050919050565b600061237b61237684612337565b6121c5565b90508281526020810184848401111561239757612396612160565b5b6123a2848285612211565b509392505050565b600082601f8301126123bf576123be61215b565b5b81356123cf848260208601612368565b91505092915050565b600080600080608085870312156123f2576123f1611d50565b5b600061240087828801611f9d565b945050602061241187828801611f9d565b935050604061242287828801611ee8565b925050606085013567ffffffffffffffff81111561244357612442611d55565b5b61244f878288016123aa565b91505092959194509250565b6000806040838503121561247257612471611d50565b5b600061248085828601611f9d565b925050602061249185828601611f9d565b9150509250929050565b7f4e487b7100000000000000000000000000000000000000000000000000000000600052602260045260246000fd5b600060028204905060018216806124e257607f821691505b6020821081036124f5576124f461249b565b5b50919050565b60006060820190506125106000830186611f5c565b61251d6020830185612072565b61252a6040830184611f5c565b949350505050565b7f50726f6a6563745374616765733a204f6e6c792061646d696e2063616e20637260008201527f6561746520737461676573000000000000000000000000000000000000000000602082015250565b600061258e602b83611e20565b915061259982612532565b604082019050919050565b600060208201905081810360008301526125bd81612581565b9050919050565b60008190508160005260206000209050919050565b60006020601f8301049050919050565b600082821b905092915050565b6000600883026126267fffffffffffffffffffffffffffffffffffffffffffffffffffffffffffffffff826125e9565b61263086836125e9565b95508019841693508086168417925050509392505050565b6000819050919050565b600061266d61266861266384611ec7565b612648565b611ec7565b9050919050565b6000819050919050565b61268783612652565b61269b61269382612674565b8484546125f6565b825550505050565b600090565b6126b06126a3565b6126bb81848461267e565b505050565b5b818110156126df576126d46000826126a8565b6001810190506126c1565b5050565b601f821115612724576126f5816125c4565b6126fe846125d9565b8101602085101561270d578190505b612721612719856125d9565b8301826126c0565b50505b505050565b600082821c905092915050565b600061274760001984600802612729565b1980831691505092915050565b60006127608383612736565b9150826002028217905092915050565b61277982611e15565b67ffffffffffffffff81111561279257612791612165565b5b61279c82546124ca565b6127a78282856126e3565b600060209050601f8311600181146127da57600084156127c8578287015190505b6127d28582612754565b86555061283a565b601f1984166127e8866125c4565b60005b82811015612810578489015182556001820191506020850194506020810190506127eb565b8683101561282d5784890151612829601f891682612736565b8355505b6001600288020188555050505b505050505050565b7f4e487b7100000000000000000000000000000000000000000000000000000000600052601160045260246000fd5b600061287c82611ec7565b915061288783611ec7565b925082820190508082111561289f5761289e612842565b5b92915050565b600081905092915050565b60006128bb82611e15565b6128c581856128a5565b93506128d5818560208601611e31565b80840191505092915050565b60006128ed82856128b0565b91506128f982846128b0565b91508190509392505050565b7f50726f6a6563745374616765733a204f6e6c792061646d696e2063616e20636f60008201527f6d706c6574652073746167657300000000000000000000000000000000000000602082015250565b6000612961602d83611e20565b915061296c82612905565b604082019050919050565b6000602082019050818103600083015261299081612954565b9050919050565b7f50726f6a6563745374616765733a20537461676520646f6573206e6f7420657860008201527f6973740000000000000000000000000000000000000000000000000000000000602082015250565b60006129f3602383611e20565b91506129fe82612997565b604082019050919050565b60006020820190508181036000830152612a22816129e6565b9050919050565b7f50726f6a6563745374616765733a20537461676520616c726561647920636f6d60008201527f706c657465640000000000000000000000000000000000000000000000000000602082015250565b6000612a85602683611e20565b9150612a9082612a29565b604082019050919050565b60006020820190508181036000830152612ab481612a78565b9050919050565b7f50726f6a6563745374616765733a204f6e6c792061646d696e2063616e20757060008201527f646174652061646d696e00000000000000000000000000000000000000000000602082015250565b6000612b17602a83611e20565b9150612b2282612abb565b604082019050919050565b60006020820190508181036000830152612b4681612b0a565b9050919050565b600081519050919050565b600082825260208201905092915050565b6000612b7482612b4d565b612b7e8185612b58565b9350612b8e818560208601611e31565b612b9781611e5b565b840191505092915050565b6000608082019050612bb76000830187611f5c565b612bc46020830186611f5c565b612bd16040830185612072565b8181036060830152612be38184612b69565b905095945050505050565b600081519050612bfd81611d86565b92915050565b600060208284031215612c1957612c18611d50565b5b6000612c2784828501612bee565b91505092915050565b6000604082019050612c456000830185611f5c565b612c526020830184612072565b9392505050565b7f4e487b7100000000000000000000000000000000000000000000000000000000600052601260045260246000fdfea2646970667358221220f3f843fdbdc493f3e9ab96a3ad4cf76b9ae17e566e4f832d727817604a69957e64736f6c63430008140033",
  "linkReferences": {},
  "deployedLinkReferences": {}
}