{
  "_format": "hh-sol-artifact-1",
  "contractName": "TokenFungible",
  "sourceName": "contracts/TokenFungible.sol",
  "abi": [
    {
      "inputs": [
        {
          "internalType": "uint256",
          "name": "initialSupply",
          "type": "uint256"
        }
      ],
      "stateMutability": "nonpayable",
      "type": "constructor"
    },
    {
      "inputs": [
        {
          "internalType": "address",
          "name": "spender",
          "type": "address"
        },
        {
          "internalType": "uint256",
          "name": "allowance",
          "type": "uint256"
        },
        {
          "internalType": "uint256",
          "name": "needed",
          "type": "uint256"
        }
      ],
      "name": "ERC20InsufficientAllowance",
      "type": "error"
    },
    {
      "inputs": [
        {
          "internalType": "address",
          "name": "sender",
          "type": "address"
        },
        {
          "internalType": "uint256",
          "name": "balance",
          "type": "uint256"
        },
        {
          "internalType": "uint256",
          "name": "needed",
          "type": "uint256"
        }
      ],
      "name": "ERC20InsufficientBalance",
      "type": "error"
    },
    {
      "inputs": [
        {
          "internalType": "address",
          "name": "approver",
          "type": "address"
        }
      ],
      "name": "ERC20InvalidApprover",
      "type": "error"
    },
    {
      "inputs": [
        {
          "internalType": "address",
          "name": "receiver",
          "type": "address"
        }
      ],
      "name": "ERC20InvalidReceiver",
      "type": "error"
    },
    {
      "inputs": [
        {
          "internalType": "address",
          "name": "sender",
          "type": "address"
        }
      ],
      "name": "ERC20InvalidSender",
      "type": "error"
    },
    {
      "inputs": [
        {
          "internalType": "address",
          "name": "spender",
          "type": "address"
        }
      ],
      "name": "ERC20InvalidSpender",
      "type": "error"
    },
    {
      "anonymous": false,
      "inputs": [
        {
          "indexed": true,
          "internalType": "address",
          "name": "owner",
          "type": "address"
        },
        {
          "indexed": true,
          "internalType": "address",
          "name": "spender",
          "type": "address"
        },
        {
          "indexed": false,
          "internalType": "uint256",
          "name": "value",
          "type": "uint256"
        }
      ],
      "name": "Approval",
      "type": "event"
    },
    {
      "anonymous": false,
      "inputs": [
        {
          "indexed": true,
          "internalType": "address",
          "name": "from",
          "type": "address"
        },
        {
          "indexed": true,
          "internalType": "address",
          "name": "to",
          "type": "address"
        },
        {
          "indexed": false,
          "internalType": "uint256",
          "name": "value",
          "type": "uint256"
        }
      ],
      "name": "Transfer",
      "type": "event"
    },
    {
      "inputs": [],
      "name": "admin",
      "outputs": [
        {
          "internalType": "address",
          "name": "",
          "type": "address"
        }
      ],
      "stateMutability": "view",
      "type": "function"
    },
    {
      "inputs": [
        {
          "internalType": "address",
          "name": "owner",
          "type": "address"
        },
        {
          "internalType": "address",
          "name": "spender",
          "type": "address"
        }
      ],
      "name": "allowance",
      "outputs": [
        {
          "internalType": "uint256",
          "name": "",
          "type": "uint256"
        }
      ],
      "stateMutability": "view",
      "type": "function"
    },
    {
      "inputs": [
        {
          "internalType": "address",
          "name": "spender",
          "type": "address"
        },
        {
          "internalType": "uint256",
          "name": "value",
          "type": "uint256"
        }
      ],
      "name": "approve",
      "outputs": [
        {
          "internalType": "bool",
          "name": "",
          "type": "bool"
        }
      ],
      "stateMutability": "nonpayable",
      "type": "function"
    },
    {
      "inputs": [
        {
          "internalType": "address",
          "name": "account",
          "type": "address"
        }
      ],
      "name": "balanceOf",
      "outputs": [
        {
          "internalType": "uint256",
          "name": "",
          "type": "uint256"
        }
      ],
      "stateMutability": "view",
      "type": "function"
    },
    {
      "inputs": [
        {
          "internalType": "uint256",
          "name": "amount",
          "type": "uint256"
        }
      ],
      "name": "burn",
      "outputs": [],
      "stateMutability": "nonpayable",
      "type": "function"
    },
    {
      "inputs": [],
      "name": "decimals",
      "outputs": [
        {
          "internalType": "uint8",
          "name": "",
          "type": "uint8"
        }
      ],
      "stateMutability": "view",
      "type": "function"
    },
    {
      "inputs": [
        {
          "internalType": "address",
          "name": "recipient",
          "type": "address"
        },
        {
          "internalType": "uint256",
          "name": "amount",
          "type": "uint256"
        }
      ],
      "name": "distribute",
      "outputs": [],
      "stateMutability": "nonpayable",
      "type": "function"
    },
    {
      "inputs": [],
      "name": "name",
      "outputs": [
        {
          "internalType": "string",
          "name": "",
          "type": "string"
        }
      ],
      "stateMutability": "view",
      "type": "function"
    },
    {
      "inputs": [],
      "name": "symbol",
      "outputs": [
        {
          "internalType": "string",
          "name": "",
          "type": "string"
        }
      ],
      "stateMutability": "view",
      "type": "function"
    },
    {
      "inputs": [],
      "name": "totalSupply",
      "outputs": [
        {
          "internalType": "uint256",
          "name": "",
          "type": "uint256"
        }
      ],
      "stateMutability": "view",
      "type": "function"
    },
    {
      "inputs": [
        {
          "internalType": "address",
          "name": "to",
          "type": "address"
        },
        {
          "internalType": "uint256",
          "name": "value",
          "type": "uint256"
        }
      ],
      "name": "transfer",
      "outputs": [
        {
          "internalType": "bool",
          "name": "",
          "type": "bool"
        }
      ],
      "stateMutability": "nonpayable",
      "type": "function"
    },
    {
      "inputs": [
        {
          "internalType": "address",
          "name": "from",
          "type": "address"
        },
        {
          "internalType": "address",
          "name": "to",
          "type": "address"
        },
        {
          "internalType": "uint256",
          "name": "value",
          "type": "uint256"
        }
      ],
      "name": "transferFrom",
      "outputs": [
        {
          "internalType": "bool",
          "name": "",
          "type": "bool"
        }
      ],
      "stateMutability": "nonpayable",
      "type": "function"
    },
    {
      "inputs": [
        {
          "internalType": "address",
          "name": "newAdmin",
          "type": "address"
        }
      ],
      "name": "updateAdmin",
      "outputs": [],
      "stateMutability": "nonpayable",
      "type": "function"
    }
  ],
  "bytecode": "0x60806040523480156200001157600080fd5b5060405162001bb438038062001bb4833981810160405281019062000037919062000442565b6040518060400160405280600d81526020017f46756e6769626c65546f6b656e000000000000000000000000000000000000008152506040518060400160405280600381526020017f46544b00000000000000000000000000000000000000000000000000000000008152508160039081620000b49190620006e4565b508060049081620000c69190620006e4565b50505033600560006101000a81548173ffffffffffffffffffffffffffffffffffffffff021916908373ffffffffffffffffffffffffffffffffffffffff1602179055506200013e600560009054906101000a900473ffffffffffffffffffffffffffffffffffffffff16826200014560201b60201c565b5062000902565b600073ffffffffffffffffffffffffffffffffffffffff168273ffffffffffffffffffffffffffffffffffffffff1603620001ba5760006040517fec442f05000000000000000000000000000000000000000000000000000000008152600401620001b1919062000810565b60405180910390fd5b620001ce60008383620001d260201b60201c565b5050565b600073ffffffffffffffffffffffffffffffffffffffff168373ffffffffffffffffffffffffffffffffffffffff1603620002285780600260008282546200021b91906200085c565b92505081905550620002fe565b60008060008573ffffffffffffffffffffffffffffffffffffffff1673ffffffffffffffffffffffffffffffffffffffff16815260200190815260200160002054905081811015620002b7578381836040517fe450d38c000000000000000000000000000000000000000000000000000000008152600401620002ae93929190620008a8565b60405180910390fd5b8181036000808673ffffffffffffffffffffffffffffffffffffffff1673ffffffffffffffffffffffffffffffffffffffff16815260200190815260200160002081905550505b600073ffffffffffffffffffffffffffffffffffffffff168273ffffffffffffffffffffffffffffffffffffffff160362000349578060026000828254039250508190555062000396565b806000808473ffffffffffffffffffffffffffffffffffffffff1673ffffffffffffffffffffffffffffffffffffffff168152602001908152602001600020600082825401925050819055505b8173ffffffffffffffffffffffffffffffffffffffff168373ffffffffffffffffffffffffffffffffffffffff167fddf252ad1be2c89b69c2b068fc378daa952ba7f163c4a11628f55a4df523b3ef83604051620003f59190620008e5565b60405180910390a3505050565b600080fd5b6000819050919050565b6200041c8162000407565b81146200042857600080fd5b50565b6000815190506200043c8162000411565b92915050565b6000602082840312156200045b576200045a62000402565b5b60006200046b848285016200042b565b91505092915050565b600081519050919050565b7f4e487b7100000000000000000000000000000000000000000000000000000000600052604160045260246000fd5b7f4e487b7100000000000000000000000000000000000000000000000000000000600052602260045260246000fd5b60006002820490506001821680620004f657607f821691505b6020821081036200050c576200050b620004ae565b5b50919050565b60008190508160005260206000209050919050565b60006020601f8301049050919050565b600082821b905092915050565b600060088302620005767fffffffffffffffffffffffffffffffffffffffffffffffffffffffffffffffff8262000537565b62000582868362000537565b95508019841693508086168417925050509392505050565b6000819050919050565b6000620005c5620005bf620005b98462000407565b6200059a565b62000407565b9050919050565b6000819050919050565b620005e183620005a4565b620005f9620005f082620005cc565b84845462000544565b825550505050565b600090565b6200061062000601565b6200061d818484620005d6565b505050565b5b8181101562000645576200063960008262000606565b60018101905062000623565b5050565b601f82111562000694576200065e8162000512565b620006698462000527565b8101602085101562000679578190505b62000691620006888562000527565b83018262000622565b50505b505050565b600082821c905092915050565b6000620006b96000198460080262000699565b1980831691505092915050565b6000620006d48383620006a6565b9150826002028217905092915050565b620006ef8262000474565b67ffffffffffffffff8111156200070b576200070a6200047f565b5b620007178254620004dd565b6200072482828562000649565b600060209050601f8311600181146200075c576000841562000747578287015190505b620007538582620006c6565b865550620007c3565b601f1984166200076c8662000512565b60005b8281101562000796578489015182556001820191506020850194506020810190506200076f565b86831015620007b65784890151620007b2601f891682620006a6565b8355505b6001600288020188555050505b505050505050565b600073ffffffffffffffffffffffffffffffffffffffff82169050919050565b6000620007f882620007cb565b9050919050565b6200080a81620007eb565b82525050565b6000602082019050620008276000830184620007ff565b92915050565b7f4e487b7100000000000000000000000000000000000000000000000000000000600052601160045260246000fd5b6000620008698262000407565b9150620008768362000407565b92508282019050808211156200089157620008906200082d565b5b92915050565b620008a28162000407565b82525050565b6000606082019050620008bf6000830186620007ff565b620008ce602083018562000897565b620008dd604083018462000897565b949350505050565b6000602082019050620008fc600083018462000897565b92915050565b6112a280620009126000396000f3fe608060405234801561001057600080fd5b50600436106100cf5760003560e01c806370a082311161008c578063dd62ed3e11610066578063dd62ed3e14610228578063e2f273bd14610258578063f851a44014610274578063fb93210814610292576100cf565b806370a08231146101aa57806395d89b41146101da578063a9059cbb146101f8576100cf565b806306fdde03146100d4578063095ea7b3146100f257806318160ddd1461012257806323b872dd14610140578063313ce5671461017057806342966c681461018e575b600080fd5b6100dc6102ae565b6040516100e99190610da5565b60405180910390f35b61010c60048036038101906101079190610e60565b610340565b6040516101199190610ebb565b60405180910390f35b61012a610363565b6040516101379190610ee5565b60405180910390f35b61015a60048036038101906101559190610f00565b61036d565b6040516101679190610ebb565b60405180910390f35b61017861039c565b6040516101859190610f6f565b60405180910390f35b6101a860048036038101906101a39190610f8a565b6103a5565b005b6101c460048036038101906101bf9190610fb7565b6103b2565b6040516101d19190610ee5565b60405180910390f35b6101e26103fa565b6040516101ef9190610da5565b60405180910390f35b610212600480360381019061020d9190610e60565b61048c565b60405161021f9190610ebb565b60405180910390f35b610242600480360381019061023d9190610fe4565b6104af565b60405161024f9190610ee5565b60405180910390f35b610272600480360381019061026d9190610fb7565b610536565b005b61027c61060a565b6040516102899190611033565b60405180910390f35b6102ac60048036038101906102a79190610e60565b610634565b005b6060600380546102bd9061107d565b80601f01602080910402602001604051908101604052809291908181526020018280546102e99061107d565b80156103365780601f1061030b57610100808354040283529160200191610336565b820191906000526020600020905b81548152906001019060200180831161031957829003601f168201915b5050505050905090565b60008061034b6106f5565b90506103588185856106fd565b600191505092915050565b6000600254905090565b6000806103786106f5565b905061038585828561070f565b6103908585856107a3565b60019150509392505050565b60006012905090565b6103af3382610897565b50565b60008060008373ffffffffffffffffffffffffffffffffffffffff1673ffffffffffffffffffffffffffffffffffffffff168152602001908152602001600020549050919050565b6060600480546104099061107d565b80601f01602080910402602001604051908101604052809291908181526020018280546104359061107d565b80156104825780601f1061045757610100808354040283529160200191610482565b820191906000526020600020905b81548152906001019060200180831161046557829003601f168201915b5050505050905090565b6000806104976106f5565b90506104a48185856107a3565b600191505092915050565b6000600160008473ffffffffffffffffffffffffffffffffffffffff1673ffffffffffffffffffffffffffffffffffffffff16815260200190815260200160002060008373ffffffffffffffffffffffffffffffffffffffff1673ffffffffffffffffffffffffffffffffffffffff16815260200190815260200160002054905092915050565b600560009054906101000a900473ffffffffffffffffffffffffffffffffffffffff1673ffffffffffffffffffffffffffffffffffffffff163373ffffffffffffffffffffffffffffffffffffffff16146105c6576040517f08c379a00000000000000000000000000000000000000000000000000000000081526004016105bd90611120565b60405180910390fd5b80600560006101000a81548173ffffffffffffffffffffffffffffffffffffffff021916908373ffffffffffffffffffffffffffffffffffffffff16021790555050565b6000600560009054906101000a900473ffffffffffffffffffffffffffffffffffffffff16905090565b600560009054906101000a900473ffffffffffffffffffffffffffffffffffffffff1673ffffffffffffffffffffffffffffffffffffffff163373ffffffffffffffffffffffffffffffffffffffff16146106c4576040517f08c379a00000000000000000000000000000000000000000000000000000000081526004016106bb906111b2565b60405180910390fd5b6106f1600560009054906101000a900473ffffffffffffffffffffffffffffffffffffffff1683836107a3565b5050565b600033905090565b61070a8383836001610919565b505050565b600061071b84846104af565b90507fffffffffffffffffffffffffffffffffffffffffffffffffffffffffffffffff811461079d578181101561078d578281836040517ffb8f41b2000000000000000000000000000000000000000000000000000000008152600401610784939291906111d2565b60405180910390fd5b61079c84848484036000610919565b5b50505050565b600073ffffffffffffffffffffffffffffffffffffffff168373ffffffffffffffffffffffffffffffffffffffff16036108155760006040517f96c6fd1e00000000000000000000000000000000000000000000000000000000815260040161080c9190611033565b60405180910390fd5b600073ffffffffffffffffffffffffffffffffffffffff168273ffffffffffffffffffffffffffffffffffffffff16036108875760006040517fec442f0500000000000000000000000000000000000000000000000000000000815260040161087e9190611033565b60405180910390fd5b610892838383610af0565b505050565b600073ffffffffffffffffffffffffffffffffffffffff168273ffffffffffffffffffffffffffffffffffffffff16036109095760006040517f96c6fd1e0000000000000000000000000000000000000000000000000000000081526004016109009190611033565b60405180910390fd5b61091582600083610af0565b5050565b600073ffffffffffffffffffffffffffffffffffffffff168473ffffffffffffffffffffffffffffffffffffffff160361098b5760006040517fe602df050000000000000000000000000000000000000000000000000000000081526004016109829190611033565b60405180910390fd5b600073ffffffffffffffffffffffffffffffffffffffff168373ffffffffffffffffffffffffffffffffffffffff16036109fd5760006040517f94280d620000000000000000000000000000000000000000000000000000000081526004016109f49190611033565b60405180910390fd5b81600160008673ffffffffffffffffffffffffffffffffffffffff1673ffffffffffffffffffffffffffffffffffffffff16815260200190815260200160002060008573ffffffffffffffffffffffffffffffffffffffff1673ffffffffffffffffffffffffffffffffffffffff168152602001908152602001600020819055508015610aea578273ffffffffffffffffffffffffffffffffffffffff168473ffffffffffffffffffffffffffffffffffffffff167f8c5be1e5ebec7d5bd14f71427d1e84f3dd0314c0f7b2291e5b200ac8c7c3b92584604051610ae19190610ee5565b60405180910390a35b50505050565b600073ffffffffffffffffffffffffffffffffffffffff168373ffffffffffffffffffffffffffffffffffffffff1603610b42578060026000828254610b369190611238565b92505081905550610c15565b60008060008573ffffffffffffffffffffffffffffffffffffffff1673ffffffffffffffffffffffffffffffffffffffff16815260200190815260200160002054905081811015610bce578381836040517fe450d38c000000000000000000000000000000000000000000000000000000008152600401610bc5939291906111d2565b60405180910390fd5b8181036000808673ffffffffffffffffffffffffffffffffffffffff1673ffffffffffffffffffffffffffffffffffffffff16815260200190815260200160002081905550505b600073ffffffffffffffffffffffffffffffffffffffff168273ffffffffffffffffffffffffffffffffffffffff1603610c5e5780600260008282540392505081905550610cab565b806000808473ffffffffffffffffffffffffffffffffffffffff1673ffffffffffffffffffffffffffffffffffffffff168152602001908152602001600020600082825401925050819055505b8173ffffffffffffffffffffffffffffffffffffffff168373ffffffffffffffffffffffffffffffffffffffff167fddf252ad1be2c89b69c2b068fc378daa952ba7f163c4a11628f55a4df523b3ef83604051610d089190610ee5565b60405180910390a3505050565b600081519050919050565b600082825260208201905092915050565b60005b83811015610d4f578082015181840152602081019050610d34565b60008484015250505050565b6000601f19601f8301169050919050565b6000610d7782610d15565b610d818185610d20565b9350610d91818560208601610d31565b610d9a81610d5b565b840191505092915050565b60006020820190508181036000830152610dbf8184610d6c565b905092915050565b600080fd5b600073ffffffffffffffffffffffffffffffffffffffff82169050919050565b6000610df782610dcc565b9050919050565b610e0781610dec565b8114610e1257600080fd5b50565b600081359050610e2481610dfe565b92915050565b6000819050919050565b610e3d81610e2a565b8114610e4857600080fd5b50565b600081359050610e5a81610e34565b92915050565b60008060408385031215610e7757610e76610dc7565b5b6000610e8585828601610e15565b9250506020610e9685828601610e4b565b9150509250929050565b60008115159050919050565b610eb581610ea0565b82525050565b6000602082019050610ed06000830184610eac565b92915050565b610edf81610e2a565b82525050565b6000602082019050610efa6000830184610ed6565b92915050565b600080600060608486031215610f1957610f18610dc7565b5b6000610f2786828701610e15565b9350506020610f3886828701610e15565b9250506040610f4986828701610e4b565b9150509250925092565b600060ff82169050919050565b610f6981610f53565b82525050565b6000602082019050610f846000830184610f60565b92915050565b600060208284031215610fa057610f9f610dc7565b5b6000610fae84828501610e4b565b91505092915050565b600060208284031215610fcd57610fcc610dc7565b5b6000610fdb84828501610e15565b91505092915050565b60008060408385031215610ffb57610ffa610dc7565b5b600061100985828601610e15565b925050602061101a85828601610e15565b9150509250929050565b61102d81610dec565b82525050565b60006020820190506110486000830184611024565b92915050565b7f4e487b7100000000000000000000000000000000000000000000000000000000600052602260045260246000fd5b6000600282049050600182168061109557607f821691505b6020821081036110a8576110a761104e565b5b50919050565b7f546f6b656e46756e6769626c653a204f6e6c792061646d696e2063616e20757060008201527f646174652061646d696e00000000000000000000000000000000000000000000602082015250565b600061110a602a83610d20565b9150611115826110ae565b604082019050919050565b60006020820190508181036000830152611139816110fd565b9050919050565b7f546f6b656e46756e6769626c653a204f6e6c792061646d696e2063616e20646960008201527f737472696275746520746f6b656e730000000000000000000000000000000000602082015250565b600061119c602f83610d20565b91506111a782611140565b604082019050919050565b600060208201905081810360008301526111cb8161118f565b9050919050565b60006060820190506111e76000830186611024565b6111f46020830185610ed6565b6112016040830184610ed6565b949350505050565b7f4e487b7100000000000000000000000000000000000000000000000000000000600052601160045260246000fd5b600061124382610e2a565b915061124e83610e2a565b925082820190508082111561126657611265611209565b5b9291505056fea26469706673582212202d16fdbc680184461c8d173cf41710f1f3ed8f3d9ee74b9dc4992bbe8a4a9c9c64736f6c63430008140033",
  "linkReferences": {},
  "deployedLinkReferences": {}
}